{
  "contractName": "Hostel",
  "abi": [
    {
      "inputs": [
        {
          "internalType": "uint256",
          "name": "",
          "type": "uint256"
        }
      ],
      "name": "Rent_by_No",
      "outputs": [
        {
          "internalType": "uint256",
          "name": "rentno",
          "type": "uint256"
        },
        {
          "internalType": "uint256",
          "name": "roomid",
          "type": "uint256"
        },
        {
          "internalType": "uint256",
          "name": "agreementid",
          "type": "uint256"
        },
        {
          "internalType": "string",
          "name": "Roomname",
          "type": "string"
        },
        {
          "internalType": "string",
          "name": "RoomAddresss",
          "type": "string"
        },
        {
          "internalType": "uint256",
          "name": "rent_per_month",
          "type": "uint256"
        },
        {
          "internalType": "uint256",
          "name": "timestamp",
          "type": "uint256"
        },
        {
          "internalType": "address payable",
          "name": "tenantAddress",
          "type": "address"
        },
        {
          "internalType": "address payable",
          "name": "landlordAddress",
          "type": "address"
        }
      ],
      "stateMutability": "view",
      "type": "function"
    },
    {
      "inputs": [
        {
          "internalType": "uint256",
          "name": "",
          "type": "uint256"
        }
      ],
      "name": "RoomAgreement_by_No",
      "outputs": [
        {
          "internalType": "uint256",
          "name": "roomid",
          "type": "uint256"
        },
        {
          "internalType": "uint256",
          "name": "agreementid",
          "type": "uint256"
        },
        {
          "internalType": "string",
          "name": "Roomname",
          "type": "string"
        },
        {
          "internalType": "string",
          "name": "RoomAddresss",
          "type": "string"
        },
        {
          "internalType": "uint256",
          "name": "rent_per_month",
          "type": "uint256"
        },
        {
          "internalType": "uint256",
          "name": "securityDeposit",
          "type": "uint256"
        },
        {
          "internalType": "uint256",
          "name": "lockInPeriod",
          "type": "uint256"
        },
        {
          "internalType": "uint256",
          "name": "timestamp",
          "type": "uint256"
        },
        {
          "internalType": "address payable",
          "name": "tenantAddress",
          "type": "address"
        },
        {
          "internalType": "address payable",
          "name": "landlordAddress",
          "type": "address"
        }
      ],
      "stateMutability": "view",
      "type": "function"
    },
    {
      "inputs": [
        {
          "internalType": "uint256",
          "name": "",
          "type": "uint256"
        }
      ],
      "name": "Room_by_No",
      "outputs": [
        {
          "internalType": "uint256",
          "name": "roomid",
          "type": "uint256"
        },
        {
          "internalType": "uint256",
          "name": "agreementid",
          "type": "uint256"
        },
        {
          "internalType": "string",
          "name": "roomname",
          "type": "string"
        },
        {
          "internalType": "string",
          "name": "roomaddress",
          "type": "string"
        },
        {
          "internalType": "uint256",
          "name": "rent_per_month",
          "type": "uint256"
        },
        {
          "internalType": "uint256",
          "name": "securityDeposit",
          "type": "uint256"
        },
        {
          "internalType": "uint256",
          "name": "timestamp",
          "type": "uint256"
        },
        {
          "internalType": "bool",
          "name": "vacant",
          "type": "bool"
        },
        {
          "internalType": "address payable",
          "name": "landlord",
          "type": "address"
        },
        {
          "internalType": "address payable",
          "name": "currentTenant",
          "type": "address"
        }
      ],
      "stateMutability": "view",
      "type": "function"
    },
    {
      "inputs": [],
      "name": "no_of_agreement",
      "outputs": [
        {
          "internalType": "uint256",
          "name": "",
          "type": "uint256"
        }
      ],
      "stateMutability": "view",
      "type": "function"
    },
    {
      "inputs": [],
      "name": "no_of_rent",
      "outputs": [
        {
          "internalType": "uint256",
          "name": "",
          "type": "uint256"
        }
      ],
      "stateMutability": "view",
      "type": "function"
    },
    {
      "inputs": [],
      "name": "no_of_rooms",
      "outputs": [
        {
          "internalType": "uint256",
          "name": "",
          "type": "uint256"
        }
      ],
      "stateMutability": "view",
      "type": "function"
    },
    {
      "inputs": [
        {
          "internalType": "string",
          "name": "_roomname",
          "type": "string"
        },
        {
          "internalType": "string",
          "name": "_roomaddress",
          "type": "string"
        },
        {
          "internalType": "uint256",
          "name": "_rentcost",
          "type": "uint256"
        },
        {
          "internalType": "uint256",
          "name": "_securitydeposit",
          "type": "uint256"
        }
      ],
      "name": "addRoom",
      "outputs": [],
      "stateMutability": "nonpayable",
      "type": "function"
    },
    {
      "inputs": [
        {
          "internalType": "uint256",
          "name": "_index",
          "type": "uint256"
        }
      ],
      "name": "signAgreement",
      "outputs": [],
      "stateMutability": "payable",
      "type": "function"
    },
    {
      "inputs": [
        {
          "internalType": "uint256",
          "name": "_index",
          "type": "uint256"
        }
      ],
      "name": "agreementCompleted",
      "outputs": [],
      "stateMutability": "payable",
      "type": "function"
    },
    {
      "inputs": [
        {
          "internalType": "uint256",
          "name": "_index",
          "type": "uint256"
        }
      ],
      "name": "agreementTerminated",
      "outputs": [],
      "stateMutability": "nonpayable",
      "type": "function"
    }
  ],
  "bytecode": "0x60806040525f6002555f6003555f60045534801561001b575f80fd5b506121a1806100295f395ff3fe608060405260043610610090575f3560e01c80634f5e4428116100585780634f5e44281461018057806359e2cbec146101a857806363e475bd146101d257806375eb9ef6146101fa578063d0d205b71461022457610090565b806302bb27251461009457806303742de0146100d95780630ff2a806146100f557806316abb8a11461011f578063469595871461013b575b5f80fd5b34801561009f575f80fd5b506100ba60048036038101906100b591906116a4565b610268565b6040516100d09a999897969594939291906117a7565b60405180910390f35b6100f360048036038101906100ee91906116a4565b610402565b005b348015610100575f80fd5b50610109610cea565b604051610116919061184f565b60405180910390f35b610139600480360381019061013491906116a4565b610cf0565b005b348015610146575f80fd5b50610161600480360381019061015c91906116a4565b610f8a565b6040516101779a99989796959493929190611882565b60405180910390f35b34801561018b575f80fd5b506101a660048036038101906101a191906116a4565b611131565b005b3480156101b3575f80fd5b506101bc6112d0565b6040516101c9919061184f565b60405180910390f35b3480156101dd575f80fd5b506101f860048036038101906101f39190611a56565b6112d6565b005b348015610205575f80fd5b5061020e6114c6565b60405161021b919061184f565b60405180910390f35b34801561022f575f80fd5b5061024a600480360381019061024591906116a4565b6114cc565b60405161025f99989796959493929190611af2565b60405180910390f35b6006602052805f5260405f205f91509050805f01549080600101549080600201805461029390611bb8565b80601f01602080910402602001604051908101604052809291908181526020018280546102bf90611bb8565b801561030a5780601f106102e15761010080835404028352916020019161030a565b820191905f5260205f20905b8154815290600101906020018083116102ed57829003601f168201915b50505050509080600301805461031f90611bb8565b80601f016020809104026020016040519081016040528092919081815260200182805461034b90611bb8565b80156103965780601f1061036d57610100808354040283529160200191610396565b820191905f5260205f20905b81548152906001019060200180831161037957829003601f168201915b505050505090806004015490806005015490806006015490806007015490806008015f9054906101000a900473ffffffffffffffffffffffffffffffffffffffff1690806009015f9054906101000a900473ffffffffffffffffffffffffffffffffffffffff1690508a565b8060055f8281526020019081526020015f2060070160019054906101000a900473ffffffffffffffffffffffffffffffffffffffff1673ffffffffffffffffffffffffffffffffffffffff163373ffffffffffffffffffffffffffffffffffffffff16036104a5576040517f08c379a000000000000000000000000000000000000000000000000000000000815260040161049c90611c32565b60405180910390fd5b8160055f8281526020019081526020015f206005015460055f8381526020019081526020015f20600401546104da9190611c7d565b34101561051c576040517f08c379a000000000000000000000000000000000000000000000000000000000815260040161051390611cfa565b60405180910390fd5b826001151560055f8381526020019081526020015f206007015f9054906101000a900460ff16151514610584576040517f08c379a000000000000000000000000000000000000000000000000000000000815260040161057b90611d62565b60405180910390fd5b5f73ffffffffffffffffffffffffffffffffffffffff163373ffffffffffffffffffffffffffffffffffffffff16036105bb575f80fd5b5f60055f8681526020019081526020015f2060070160019054906101000a900473ffffffffffffffffffffffffffffffffffffffff1690505f60055f8781526020019081526020015f206005015460055f8881526020019081526020015f20600401546106289190611c7d565b90508173ffffffffffffffffffffffffffffffffffffffff166108fc8290811502906040515f60405180830381858888f1935050505015801561066d573d5f803e3d5ffd5b5060035f81548092919061068090611d80565b91905055503360055f8881526020019081526020015f206008015f6101000a81548173ffffffffffffffffffffffffffffffffffffffff021916908373ffffffffffffffffffffffffffffffffffffffff1602179055505f60055f8881526020019081526020015f206007015f6101000a81548160ff0219169083151502179055504260055f8881526020019081526020015f206006018190555060035460055f8881526020019081526020015f2060010181905550604051806101400160405280878152602001600354815260200160055f8981526020019081526020015f20600201805461076f90611bb8565b80601f016020809104026020016040519081016040528092919081815260200182805461079b90611bb8565b80156107e65780601f106107bd576101008083540402835291602001916107e6565b820191905f5260205f20905b8154815290600101906020018083116107c957829003601f168201915b5050505050815260200160055f8981526020019081526020015f20600301805461080f90611bb8565b80601f016020809104026020016040519081016040528092919081815260200182805461083b90611bb8565b80156108865780601f1061085d57610100808354040283529160200191610886565b820191905f5260205f20905b81548152906001019060200180831161086957829003601f168201915b5050505050815260200160055f8981526020019081526020015f2060040154815260200160055f8981526020019081526020015f206005015481526020016301e1338081526020014281526020013373ffffffffffffffffffffffffffffffffffffffff1681526020018373ffffffffffffffffffffffffffffffffffffffff1681525060065f60035481526020019081526020015f205f820151815f01556020820151816001015560408201518160020190816109449190611f64565b50606082015181600301908161095a9190611f64565b506080820151816004015560a0820151816005015560c0820151816006015560e08201518160070155610100820151816008015f6101000a81548173ffffffffffffffffffffffffffffffffffffffff021916908373ffffffffffffffffffffffffffffffffffffffff160217905550610120820151816009015f6101000a81548173ffffffffffffffffffffffffffffffffffffffff021916908373ffffffffffffffffffffffffffffffffffffffff16021790555090505060045f815480929190610a2690611d80565b91905055506040518061012001604052806004548152602001878152602001600354815260200160055f8981526020019081526020015f206002018054610a6c90611bb8565b80601f0160208091040260200160405190810160405280929190818152602001828054610a9890611bb8565b8015610ae35780601f10610aba57610100808354040283529160200191610ae3565b820191905f5260205f20905b815481529060010190602001808311610ac657829003601f168201915b5050505050815260200160055f8981526020019081526020015f206003018054610b0c90611bb8565b80601f0160208091040260200160405190810160405280929190818152602001828054610b3890611bb8565b8015610b835780601f10610b5a57610100808354040283529160200191610b83565b820191905f5260205f20905b815481529060010190602001808311610b6657829003601f168201915b5050505050815260200160055f8981526020019081526020015f206004015481526020014281526020013373ffffffffffffffffffffffffffffffffffffffff1681526020018373ffffffffffffffffffffffffffffffffffffffff1681525060075f60045481526020019081526020015f205f820151815f015560208201518160010155604082015181600201556060820151816003019081610c279190611f64565b506080820151816004019081610c3d9190611f64565b5060a0820151816005015560c0820151816006015560e0820151816007015f6101000a81548173ffffffffffffffffffffffffffffffffffffffff021916908373ffffffffffffffffffffffffffffffffffffffff160217905550610100820151816008015f6101000a81548173ffffffffffffffffffffffffffffffffffffffff021916908373ffffffffffffffffffffffffffffffffffffffff160217905550905050505050505050565b60035481565b8060055f8281526020019081526020015f2060070160019054906101000a900473ffffffffffffffffffffffffffffffffffffffff1673ffffffffffffffffffffffffffffffffffffffff163373ffffffffffffffffffffffffffffffffffffffff1614610d93576040517f08c379a0000000000000000000000000000000000000000000000000000000008152600401610d8a9061207d565b60405180910390fd5b815f60055f8381526020019081526020015f206001015490505f60065f8381526020019081526020015f206006015460065f8481526020019081526020015f2060070154610de19190611c7d565b9050804211610e25576040517f08c379a0000000000000000000000000000000000000000000000000000000008152600401610e1c906120e5565b60405180910390fd5b5f73ffffffffffffffffffffffffffffffffffffffff163373ffffffffffffffffffffffffffffffffffffffff1603610e5c575f80fd5b5f151560055f8781526020019081526020015f206007015f9054906101000a900460ff16151514610ec2576040517f08c379a0000000000000000000000000000000000000000000000000000000008152600401610eb990611d62565b60405180910390fd5b600160055f8781526020019081526020015f206007015f6101000a81548160ff0219169083151502179055505f60055f8781526020019081526020015f206008015f9054906101000a900473ffffffffffffffffffffffffffffffffffffffff1690505f60055f8881526020019081526020015f206005015490508173ffffffffffffffffffffffffffffffffffffffff166108fc8290811502906040515f60405180830381858888f19350505050158015610f80573d5f803e3d5ffd5b5050505050505050565b6005602052805f5260405f205f91509050805f015490806001015490806002018054610fb590611bb8565b80601f0160208091040260200160405190810160405280929190818152602001828054610fe190611bb8565b801561102c5780601f106110035761010080835404028352916020019161102c565b820191905f5260205f20905b81548152906001019060200180831161100f57829003601f168201915b50505050509080600301805461104190611bb8565b80601f016020809104026020016040519081016040528092919081815260200182805461106d90611bb8565b80156110b85780601f1061108f576101008083540402835291602001916110b8565b820191905f5260205f20905b81548152906001019060200180831161109b57829003601f168201915b505050505090806004015490806005015490806006015490806007015f9054906101000a900460ff16908060070160019054906101000a900473ffffffffffffffffffffffffffffffffffffffff1690806008015f9054906101000a900473ffffffffffffffffffffffffffffffffffffffff1690508a565b8060055f8281526020019081526020015f2060070160019054906101000a900473ffffffffffffffffffffffffffffffffffffffff1673ffffffffffffffffffffffffffffffffffffffff163373ffffffffffffffffffffffffffffffffffffffff16146111d4576040517f08c379a00000000000000000000000000000000000000000000000000000000081526004016111cb9061207d565b60405180910390fd5b815f60055f8381526020019081526020015f206001015490505f60065f8381526020019081526020015f206006015460065f8481526020019081526020015f20600701546112229190611c7d565b9050804210611266576040517f08c379a000000000000000000000000000000000000000000000000000000000815260040161125d9061214d565b60405180910390fd5b5f73ffffffffffffffffffffffffffffffffffffffff163373ffffffffffffffffffffffffffffffffffffffff160361129d575f80fd5b600160055f8781526020019081526020015f206007015f6101000a81548160ff0219169083151502179055505050505050565b60025481565b5f73ffffffffffffffffffffffffffffffffffffffff163373ffffffffffffffffffffffffffffffffffffffff160361130d575f80fd5b60025f81548092919061131f90611d80565b91905055505f6001905060405180610140016040528060025481526020015f81526020018681526020018581526020018481526020018381526020015f815260200182151581526020013373ffffffffffffffffffffffffffffffffffffffff1681526020015f73ffffffffffffffffffffffffffffffffffffffff1681525060055f60025481526020019081526020015f205f820151815f01556020820151816001015560408201518160020190816113d99190611f64565b5060608201518160030190816113ef9190611f64565b506080820151816004015560a0820151816005015560c0820151816006015560e0820151816007015f6101000a81548160ff0219169083151502179055506101008201518160070160016101000a81548173ffffffffffffffffffffffffffffffffffffffff021916908373ffffffffffffffffffffffffffffffffffffffff160217905550610120820151816008015f6101000a81548173ffffffffffffffffffffffffffffffffffffffff021916908373ffffffffffffffffffffffffffffffffffffffff1602179055509050505050505050565b60045481565b6007602052805f5260405f205f91509050805f0154908060010154908060020154908060030180546114fd90611bb8565b80601f016020809104026020016040519081016040528092919081815260200182805461152990611bb8565b80156115745780601f1061154b57610100808354040283529160200191611574565b820191905f5260205f20905b81548152906001019060200180831161155757829003601f168201915b50505050509080600401805461158990611bb8565b80601f01602080910402602001604051908101604052809291908181526020018280546115b590611bb8565b80156116005780601f106115d757610100808354040283529160200191611600565b820191905f5260205f20905b8154815290600101906020018083116115e357829003601f168201915b505050505090806005015490806006015490806007015f9054906101000a900473ffffffffffffffffffffffffffffffffffffffff1690806008015f9054906101000a900473ffffffffffffffffffffffffffffffffffffffff16905089565b5f604051905090565b5f80fd5b5f80fd5b5f819050919050565b61168381611671565b811461168d575f80fd5b50565b5f8135905061169e8161167a565b92915050565b5f602082840312156116b9576116b8611669565b5b5f6116c684828501611690565b91505092915050565b6116d881611671565b82525050565b5f81519050919050565b5f82825260208201905092915050565b5f5b838110156117155780820151818401526020810190506116fa565b5f8484015250505050565b5f601f19601f8301169050919050565b5f61173a826116de565b61174481856116e8565b93506117548185602086016116f8565b61175d81611720565b840191505092915050565b5f73ffffffffffffffffffffffffffffffffffffffff82169050919050565b5f61179182611768565b9050919050565b6117a181611787565b82525050565b5f610140820190506117bb5f83018d6116cf565b6117c8602083018c6116cf565b81810360408301526117da818b611730565b905081810360608301526117ee818a611730565b90506117fd60808301896116cf565b61180a60a08301886116cf565b61181760c08301876116cf565b61182460e08301866116cf565b611832610100830185611798565b611840610120830184611798565b9b9a5050505050505050505050565b5f6020820190506118625f8301846116cf565b92915050565b5f8115159050919050565b61187c81611868565b82525050565b5f610140820190506118965f83018d6116cf565b6118a3602083018c6116cf565b81810360408301526118b5818b611730565b905081810360608301526118c9818a611730565b90506118d860808301896116cf565b6118e560a08301886116cf565b6118f260c08301876116cf565b6118ff60e0830186611873565b61190d610100830185611798565b61191b610120830184611798565b9b9a5050505050505050505050565b5f80fd5b5f80fd5b7f4e487b71000000000000000000000000000000000000000000000000000000005f52604160045260245ffd5b61196882611720565b810181811067ffffffffffffffff8211171561198757611986611932565b5b80604052505050565b5f611999611660565b90506119a5828261195f565b919050565b5f67ffffffffffffffff8211156119c4576119c3611932565b5b6119cd82611720565b9050602081019050919050565b828183375f83830152505050565b5f6119fa6119f5846119aa565b611990565b905082815260208101848484011115611a1657611a1561192e565b5b611a218482856119da565b509392505050565b5f82601f830112611a3d57611a3c61192a565b5b8135611a4d8482602086016119e8565b91505092915050565b5f805f8060808587031215611a6e57611a6d611669565b5b5f85013567ffffffffffffffff811115611a8b57611a8a61166d565b5b611a9787828801611a29565b945050602085013567ffffffffffffffff811115611ab857611ab761166d565b5b611ac487828801611a29565b9350506040611ad587828801611690565b9250506060611ae687828801611690565b91505092959194509250565b5f61012082019050611b065f83018c6116cf565b611b13602083018b6116cf565b611b20604083018a6116cf565b8181036060830152611b328189611730565b90508181036080830152611b468188611730565b9050611b5560a08301876116cf565b611b6260c08301866116cf565b611b6f60e0830185611798565b611b7d610100830184611798565b9a9950505050505050505050565b7f4e487b71000000000000000000000000000000000000000000000000000000005f52602260045260245ffd5b5f6002820490506001821680611bcf57607f821691505b602082108103611be257611be1611b8b565b5b50919050565b7f4f6e6c792054656e616e742063616e20616363657373207468697300000000005f82015250565b5f611c1c601b836116e8565b9150611c2782611be8565b602082019050919050565b5f6020820190508181035f830152611c4981611c10565b9050919050565b7f4e487b71000000000000000000000000000000000000000000000000000000005f52601160045260245ffd5b5f611c8782611671565b9150611c9283611671565b9250828201905080821115611caa57611ca9611c50565b5b92915050565b7f4e6f7420656e6f75676820457468657220696e20796f75722077616c6c6574005f82015250565b5f611ce4601f836116e8565b9150611cef82611cb0565b602082019050919050565b5f6020820190508181035f830152611d1181611cd8565b9050919050565b7f526f6f6d2069732063757272656e746c79204f636375706965642e00000000005f82015250565b5f611d4c601b836116e8565b9150611d5782611d18565b602082019050919050565b5f6020820190508181035f830152611d7981611d40565b9050919050565b5f611d8a82611671565b91507fffffffffffffffffffffffffffffffffffffffffffffffffffffffffffffffff8203611dbc57611dbb611c50565b5b600182019050919050565b5f819050815f5260205f209050919050565b5f6020601f8301049050919050565b5f82821b905092915050565b5f60088302611e237fffffffffffffffffffffffffffffffffffffffffffffffffffffffffffffffff82611de8565b611e2d8683611de8565b95508019841693508086168417925050509392505050565b5f819050919050565b5f611e68611e63611e5e84611671565b611e45565b611671565b9050919050565b5f819050919050565b611e8183611e4e565b611e95611e8d82611e6f565b848454611df4565b825550505050565b5f90565b611ea9611e9d565b611eb4818484611e78565b505050565b5b81811015611ed757611ecc5f82611ea1565b600181019050611eba565b5050565b601f821115611f1c57611eed81611dc7565b611ef684611dd9565b81016020851015611f05578190505b611f19611f1185611dd9565b830182611eb9565b50505b505050565b5f82821c905092915050565b5f611f3c5f1984600802611f21565b1980831691505092915050565b5f611f548383611f2d565b9150826002028217905092915050565b611f6d826116de565b67ffffffffffffffff811115611f8657611f85611932565b5b611f908254611bb8565b611f9b828285611edb565b5f60209050601f831160018114611fcc575f8415611fba578287015190505b611fc48582611f49565b86555061202b565b601f198416611fda86611dc7565b5f5b8281101561200157848901518255600182019150602085019450602081019050611fdc565b8683101561201e578489015161201a601f891682611f2d565b8355505b6001600288020188555050505b505050505050565b7f4f6e6c79206c616e646c6f72642063616e2061636365737320746869730000005f82015250565b5f612067601d836116e8565b915061207282612033565b602082019050919050565b5f6020820190508181035f8301526120948161205b565b9050919050565b7f54696d65206973206c65667420666f7220636f6e747261637420746f20656e645f82015250565b5f6120cf6020836116e8565b91506120da8261209b565b602082019050919050565b5f6020820190508181035f8301526120fc816120c3565b9050919050565b7f41677265656d656e7420616c726561647920456e6465640000000000000000005f82015250565b5f6121376017836116e8565b915061214282612103565b602082019050919050565b5f6020820190508181035f8301526121648161212b565b905091905056fea26469706673582212200722c55d0a8c7b7fc36dd042540399e9c0514d7d5bd3cf4388776a25700c66b864736f6c63430008150033",
  "immutableReferences": {},
  "source": "//SPDX-License-Identifier: UNLICENSED\r\npragma solidity ^0.8.19;\r\n\r\ncontract Hostel{\r\n    address payable tenant;\r\n    address payable landlord;\r\n    uint public no_of_rooms = 0;\r\n    uint public no_of_agreement = 0;\r\n    uint public no_of_rent = 0;\r\n\r\n    struct Room{\r\n        uint roomid;\r\n        uint agreementid;\r\n        string roomname;\r\n        string roomaddress;\r\n        uint rent_per_month;\r\n        uint securityDeposit;\r\n        uint timestamp;\r\n        bool vacant;\r\n        address payable landlord;\r\n        address payable currentTenant;\r\n    }\r\n    //map previous structure with a uint(named : roomid).\r\n    mapping(uint => Room) public Room_by_No;\r\n\r\n    struct RoomAgreement{\r\n        uint roomid;\r\n        uint agreementid;\r\n        string Roomname;\r\n        string RoomAddresss;\r\n        uint rent_per_month;\r\n        uint securityDeposit;\r\n        uint lockInPeriod;\r\n        uint timestamp;\r\n        address payable tenantAddress;\r\n        address payable landlordAddress;\r\n    }\r\n   \r\n    mapping(uint => RoomAgreement) public RoomAgreement_by_No;\r\n\r\n    struct Rent{\r\n        uint rentno;\r\n        uint roomid;\r\n        uint agreementid;\r\n        string Roomname;\r\n        string RoomAddresss;\r\n        uint rent_per_month;\r\n        uint timestamp;\r\n        address payable tenantAddress;\r\n        address payable landlordAddress;\r\n    }\r\n\r\n    mapping(uint => Rent) public Rent_by_No;\r\n\r\n    //The following will check if the message sender is the landlord.\r\n    modifier onlyLandlord(uint _index) {\r\n        require(msg.sender == Room_by_No[_index].landlord, \"Only landlord can access this\");\r\n        _;\r\n    }\r\n\r\n    //The following will check if the message sender is anyone except the landlord.\r\n    modifier notLandLord(uint _index) {\r\n        require(msg.sender != Room_by_No[_index].landlord, \"Only Tenant can access this\");\r\n        _;\r\n    }\r\n\r\n    //The following will check whether the room is vacant or not.\r\n    modifier OnlyWhileVacant(uint _index){\r\n        require(Room_by_No[_index].vacant == true, \"Room is currently Occupied.\");\r\n        _;\r\n    }\r\n\r\n    //The following will check whether the tenant has enough Ether in his wallet to pay the rent.\r\n    modifier enoughRent(uint _index) {\r\n        require(msg.value >= uint(Room_by_No[_index].rent_per_month), \"Not enough Ether in your wallet\");\r\n        _;\r\n    }\r\n    //The following will check whether the tenant has enough Ether in his wallet to pay a one-time security deposit and one month's rent in advance.\r\n    modifier enoughAgreementfee(uint _index) {\r\n        require(msg.value >= uint(uint(Room_by_No[_index].rent_per_month) + uint(Room_by_No[_index].securityDeposit)), \"Not enough Ether in your wallet\");\r\n        _;\r\n    }\r\n\r\n    //The following will check whether the tenant's address is the same as who has signed the previous rental agreement.\r\n    modifier sameTenant(uint _index) {\r\n        require(msg.sender == Room_by_No[_index].currentTenant, \"No previous agreement found with you & landlord\");\r\n        _;\r\n    }\r\n\r\n    //The following will check whether any time is left for the agreement to end.\r\n    modifier AgreementTimesLeft(uint _index) {\r\n        uint _AgreementNo = Room_by_No[_index].agreementid;\r\n        uint time = RoomAgreement_by_No[_AgreementNo].timestamp + RoomAgreement_by_No[_AgreementNo].lockInPeriod;\r\n        require(block.timestamp < time, \"Agreement already Ended\");\r\n        _;\r\n    }\r\n    \r\n    //The following will check whether 365 days have passed after the last agreement has been created.\r\n    modifier AgreementTimesUp(uint _index) {\r\n        uint _AgreementNo = Room_by_No[_index].agreementid;\r\n        uint time = RoomAgreement_by_No[_AgreementNo].timestamp + RoomAgreement_by_No[_AgreementNo].lockInPeriod;\r\n        require(block.timestamp > time, \"Time is left for contract to end\");\r\n        _;\r\n    }\r\n\r\n    //The following will check whether 30 days have passed after the last rent payment.\r\n    modifier RentTimesUp(uint _index) {\r\n        uint time = Room_by_No[_index].timestamp + 30 days;\r\n        require(block.timestamp >= time, \"Time left to pay Rent\");\r\n        _;\r\n    }\r\n\r\n    //The following function will be used to add Rooms.\r\n    function addRoom(\r\n        string memory _roomname,\r\n        string memory _roomaddress,\r\n        uint _rentcost,\r\n        uint  _securitydeposit) \r\n        public {\r\n        require(msg.sender != address(0));\r\n        no_of_rooms ++;\r\n        bool _vacancy = true;\r\n        Room_by_No[no_of_rooms] = Room(\r\n            no_of_rooms,\r\n            0,\r\n            _roomname,\r\n            _roomaddress,\r\n            _rentcost,\r\n            _securitydeposit,\r\n            0,\r\n            _vacancy,\r\n            payable(msg.sender),\r\n            payable(address(0))); \r\n    }\r\n\r\n    //A function to sign the rental agreement for a hostel room between the landlord and a tenant.\r\n    // will only execute if the user is Tenant, meaning that the user's address and the landlord's address don't match.\r\n    // will only execute if the user has enough ether (payable 'ether') in their Ethereum wallet.(Enough ether means = one-time security deposit + 1st month's rent)\r\n    // will only execute only if the said room is vacant and the tenant has enough ether in their wallet.\r\n    function signAgreement(uint _index) public payable notLandLord(_index) enoughAgreementfee(_index) OnlyWhileVacant(_index) {\r\n        require(msg.sender != address(0));\r\n        address payable _landlord = Room_by_No[_index].landlord;\r\n        uint totalfee = Room_by_No[_index].rent_per_month + Room_by_No[_index].securityDeposit;\r\n        _landlord.transfer(totalfee);\r\n        no_of_agreement++;\r\n        Room_by_No[_index].currentTenant = payable(msg.sender);\r\n        Room_by_No[_index].vacant = false;\r\n        Room_by_No[_index].timestamp = block.timestamp;\r\n        Room_by_No[_index].agreementid = no_of_agreement;\r\n        RoomAgreement_by_No[no_of_agreement]=RoomAgreement(\r\n            _index,\r\n            no_of_agreement,\r\n            Room_by_No[_index].roomname,\r\n            Room_by_No[_index].roomaddress,\r\n            Room_by_No[_index].rent_per_month,\r\n            Room_by_No[_index].securityDeposit,\r\n            365 days,\r\n            block.timestamp,\r\n            payable(msg.sender),\r\n            _landlord);\r\n        no_of_rent++;\r\n        Rent_by_No[no_of_rent] = Rent(\r\n            no_of_rent,\r\n            _index,\r\n            no_of_agreement,\r\n            Room_by_No[_index].roomname,\r\n            Room_by_No[_index].roomaddress,\r\n            Room_by_No[_index].rent_per_month,\r\n            block.timestamp,\r\n            payable(msg.sender),\r\n            _landlord);\r\n    }\r\n\r\n    // will only execute if the user's address and the landlord's address are the same.\r\n    // will only execute if the tenant had signed that agreement more than a year ago.\r\nfunction agreementCompleted(uint _index) public payable onlyLandlord(_index) AgreementTimesUp(_index){\r\n    require(msg.sender != address(0));\r\n    require(Room_by_No[_index].vacant == false, \"Room is currently Occupied.\");\r\n    Room_by_No[_index].vacant = true;\r\n    address payable _Tenant = Room_by_No[_index].currentTenant;\r\n    uint _securitydeposit = Room_by_No[_index].securityDeposit;\r\n    _Tenant.transfer(_securitydeposit);\r\n}\r\n\r\n    // will only execute if the user's address and the landlord's address are the same.\r\n    // will only execute if the tenant had signed that agreement less than a year ago.\r\n    function agreementTerminated(uint _index) public onlyLandlord(_index) AgreementTimesLeft(_index){\r\n        require(msg.sender != address(0));\r\n        Room_by_No[_index].vacant = true;\r\n    }\r\n}\r\n",
  "sourcePath": "c:\\Users\\Bananus\\Projects\\dapp\\contracts\\Hostel.sol",
  "compiler": {
    "name": "solc",
    "version": "0.8.21+commit.d9974bed.Emscripten.clang"
  },
  "schemaVersion": "3.4.16",
  "updatedAt": "2024-01-24T03:02:24.695Z",
  "devdoc": {
    "kind": "dev",
    "methods": {},
    "version": 1
  },
  "userdoc": {
    "kind": "user",
    "methods": {},
    "version": 1
  }
}